{
  "_format": "hh-sol-artifact-1",
  "contractName": "GovernanceToken",
  "sourceName": "contracts/GovernanceToken.sol",
  "abi": [
    {
      "inputs": [
        {
          "internalType": "uint256",
          "name": "initialSupply",
          "type": "uint256"
        }
      ],
      "stateMutability": "nonpayable",
      "type": "constructor"
    },
    {
      "inputs": [],
      "name": "CheckpointUnorderedInsertion",
      "type": "error"
    },
    {
      "inputs": [],
      "name": "ECDSAInvalidSignature",
      "type": "error"
    },
    {
      "inputs": [
        {
          "internalType": "uint256",
          "name": "length",
          "type": "uint256"
        }
      ],
      "name": "ECDSAInvalidSignatureLength",
      "type": "error"
    },
    {
      "inputs": [
        {
          "internalType": "bytes32",
          "name": "s",
          "type": "bytes32"
        }
      ],
      "name": "ECDSAInvalidSignatureS",
      "type": "error"
    },
    {
      "inputs": [
        {
          "internalType": "uint256",
          "name": "increasedSupply",
          "type": "uint256"
        },
        {
          "internalType": "uint256",
          "name": "cap",
          "type": "uint256"
        }
      ],
      "name": "ERC20ExceededSafeSupply",
      "type": "error"
    },
    {
      "inputs": [
        {
          "internalType": "address",
          "name": "spender",
          "type": "address"
        },
        {
          "internalType": "uint256",
          "name": "allowance",
          "type": "uint256"
        },
        {
          "internalType": "uint256",
          "name": "needed",
          "type": "uint256"
        }
      ],
      "name": "ERC20InsufficientAllowance",
      "type": "error"
    },
    {
      "inputs": [
        {
          "internalType": "address",
          "name": "sender",
          "type": "address"
        },
        {
          "internalType": "uint256",
          "name": "balance",
          "type": "uint256"
        },
        {
          "internalType": "uint256",
          "name": "needed",
          "type": "uint256"
        }
      ],
      "name": "ERC20InsufficientBalance",
      "type": "error"
    },
    {
      "inputs": [
        {
          "internalType": "address",
          "name": "approver",
          "type": "address"
        }
      ],
      "name": "ERC20InvalidApprover",
      "type": "error"
    },
    {
      "inputs": [
        {
          "internalType": "address",
          "name": "receiver",
          "type": "address"
        }
      ],
      "name": "ERC20InvalidReceiver",
      "type": "error"
    },
    {
      "inputs": [
        {
          "internalType": "address",
          "name": "sender",
          "type": "address"
        }
      ],
      "name": "ERC20InvalidSender",
      "type": "error"
    },
    {
      "inputs": [
        {
          "internalType": "address",
          "name": "spender",
          "type": "address"
        }
      ],
      "name": "ERC20InvalidSpender",
      "type": "error"
    },
    {
      "inputs": [
        {
          "internalType": "uint256",
          "name": "deadline",
          "type": "uint256"
        }
      ],
      "name": "ERC2612ExpiredSignature",
      "type": "error"
    },
    {
      "inputs": [
        {
          "internalType": "address",
          "name": "signer",
          "type": "address"
        },
        {
          "internalType": "address",
          "name": "owner",
          "type": "address"
        }
      ],
      "name": "ERC2612InvalidSigner",
      "type": "error"
    },
    {
      "inputs": [
        {
          "internalType": "uint256",
          "name": "timepoint",
          "type": "uint256"
        },
        {
          "internalType": "uint48",
          "name": "clock",
          "type": "uint48"
        }
      ],
      "name": "ERC5805FutureLookup",
      "type": "error"
    },
    {
      "inputs": [],
      "name": "ERC6372InconsistentClock",
      "type": "error"
    },
    {
      "inputs": [
        {
          "internalType": "address",
          "name": "account",
          "type": "address"
        },
        {
          "internalType": "uint256",
          "name": "currentNonce",
          "type": "uint256"
        }
      ],
      "name": "InvalidAccountNonce",
      "type": "error"
    },
    {
      "inputs": [],
      "name": "InvalidShortString",
      "type": "error"
    },
    {
      "inputs": [
        {
          "internalType": "uint8",
          "name": "bits",
          "type": "uint8"
        },
        {
          "internalType": "uint256",
          "name": "value",
          "type": "uint256"
        }
      ],
      "name": "SafeCastOverflowedUintDowncast",
      "type": "error"
    },
    {
      "inputs": [
        {
          "internalType": "string",
          "name": "str",
          "type": "string"
        }
      ],
      "name": "StringTooLong",
      "type": "error"
    },
    {
      "inputs": [
        {
          "internalType": "uint256",
          "name": "expiry",
          "type": "uint256"
        }
      ],
      "name": "VotesExpiredSignature",
      "type": "error"
    },
    {
      "anonymous": false,
      "inputs": [
        {
          "indexed": true,
          "internalType": "address",
          "name": "owner",
          "type": "address"
        },
        {
          "indexed": true,
          "internalType": "address",
          "name": "spender",
          "type": "address"
        },
        {
          "indexed": false,
          "internalType": "uint256",
          "name": "value",
          "type": "uint256"
        }
      ],
      "name": "Approval",
      "type": "event"
    },
    {
      "anonymous": false,
      "inputs": [
        {
          "indexed": true,
          "internalType": "address",
          "name": "delegator",
          "type": "address"
        },
        {
          "indexed": true,
          "internalType": "address",
          "name": "fromDelegate",
          "type": "address"
        },
        {
          "indexed": true,
          "internalType": "address",
          "name": "toDelegate",
          "type": "address"
        }
      ],
      "name": "DelegateChanged",
      "type": "event"
    },
    {
      "anonymous": false,
      "inputs": [
        {
          "indexed": true,
          "internalType": "address",
          "name": "delegate",
          "type": "address"
        },
        {
          "indexed": false,
          "internalType": "uint256",
          "name": "previousVotes",
          "type": "uint256"
        },
        {
          "indexed": false,
          "internalType": "uint256",
          "name": "newVotes",
          "type": "uint256"
        }
      ],
      "name": "DelegateVotesChanged",
      "type": "event"
    },
    {
      "anonymous": false,
      "inputs": [],
      "name": "EIP712DomainChanged",
      "type": "event"
    },
    {
      "anonymous": false,
      "inputs": [
        {
          "indexed": true,
          "internalType": "address",
          "name": "from",
          "type": "address"
        },
        {
          "indexed": true,
          "internalType": "address",
          "name": "to",
          "type": "address"
        },
        {
          "indexed": false,
          "internalType": "uint256",
          "name": "value",
          "type": "uint256"
        }
      ],
      "name": "Transfer",
      "type": "event"
    },
    {
      "inputs": [],
      "name": "CLOCK_MODE",
      "outputs": [
        {
          "internalType": "string",
          "name": "",
          "type": "string"
        }
      ],
      "stateMutability": "view",
      "type": "function"
    },
    {
      "inputs": [],
      "name": "DOMAIN_SEPARATOR",
      "outputs": [
        {
          "internalType": "bytes32",
          "name": "",
          "type": "bytes32"
        }
      ],
      "stateMutability": "view",
      "type": "function"
    },
    {
      "inputs": [],
      "name": "MAX_SUPPLY",
      "outputs": [
        {
          "internalType": "uint256",
          "name": "",
          "type": "uint256"
        }
      ],
      "stateMutability": "view",
      "type": "function"
    },
    {
      "inputs": [
        {
          "internalType": "address",
          "name": "owner",
          "type": "address"
        },
        {
          "internalType": "address",
          "name": "spender",
          "type": "address"
        }
      ],
      "name": "allowance",
      "outputs": [
        {
          "internalType": "uint256",
          "name": "",
          "type": "uint256"
        }
      ],
      "stateMutability": "view",
      "type": "function"
    },
    {
      "inputs": [
        {
          "internalType": "address",
          "name": "spender",
          "type": "address"
        },
        {
          "internalType": "uint256",
          "name": "value",
          "type": "uint256"
        }
      ],
      "name": "approve",
      "outputs": [
        {
          "internalType": "bool",
          "name": "",
          "type": "bool"
        }
      ],
      "stateMutability": "nonpayable",
      "type": "function"
    },
    {
      "inputs": [
        {
          "internalType": "address",
          "name": "account",
          "type": "address"
        }
      ],
      "name": "balanceOf",
      "outputs": [
        {
          "internalType": "uint256",
          "name": "",
          "type": "uint256"
        }
      ],
      "stateMutability": "view",
      "type": "function"
    },
    {
      "inputs": [
        {
          "internalType": "address",
          "name": "account",
          "type": "address"
        },
        {
          "internalType": "uint32",
          "name": "pos",
          "type": "uint32"
        }
      ],
      "name": "checkpoints",
      "outputs": [
        {
          "components": [
            {
              "internalType": "uint48",
              "name": "_key",
              "type": "uint48"
            },
            {
              "internalType": "uint208",
              "name": "_value",
              "type": "uint208"
            }
          ],
          "internalType": "struct Checkpoints.Checkpoint208",
          "name": "",
          "type": "tuple"
        }
      ],
      "stateMutability": "view",
      "type": "function"
    },
    {
      "inputs": [],
      "name": "clock",
      "outputs": [
        {
          "internalType": "uint48",
          "name": "",
          "type": "uint48"
        }
      ],
      "stateMutability": "view",
      "type": "function"
    },
    {
      "inputs": [],
      "name": "decimals",
      "outputs": [
        {
          "internalType": "uint8",
          "name": "",
          "type": "uint8"
        }
      ],
      "stateMutability": "view",
      "type": "function"
    },
    {
      "inputs": [
        {
          "internalType": "address",
          "name": "delegatee",
          "type": "address"
        }
      ],
      "name": "delegate",
      "outputs": [],
      "stateMutability": "nonpayable",
      "type": "function"
    },
    {
      "inputs": [
        {
          "internalType": "address",
          "name": "delegatee",
          "type": "address"
        },
        {
          "internalType": "uint256",
          "name": "nonce",
          "type": "uint256"
        },
        {
          "internalType": "uint256",
          "name": "expiry",
          "type": "uint256"
        },
        {
          "internalType": "uint8",
          "name": "v",
          "type": "uint8"
        },
        {
          "internalType": "bytes32",
          "name": "r",
          "type": "bytes32"
        },
        {
          "internalType": "bytes32",
          "name": "s",
          "type": "bytes32"
        }
      ],
      "name": "delegateBySig",
      "outputs": [],
      "stateMutability": "nonpayable",
      "type": "function"
    },
    {
      "inputs": [
        {
          "internalType": "address",
          "name": "account",
          "type": "address"
        }
      ],
      "name": "delegates",
      "outputs": [
        {
          "internalType": "address",
          "name": "",
          "type": "address"
        }
      ],
      "stateMutability": "view",
      "type": "function"
    },
    {
      "inputs": [],
      "name": "eip712Domain",
      "outputs": [
        {
          "internalType": "bytes1",
          "name": "fields",
          "type": "bytes1"
        },
        {
          "internalType": "string",
          "name": "name",
          "type": "string"
        },
        {
          "internalType": "string",
          "name": "version",
          "type": "string"
        },
        {
          "internalType": "uint256",
          "name": "chainId",
          "type": "uint256"
        },
        {
          "internalType": "address",
          "name": "verifyingContract",
          "type": "address"
        },
        {
          "internalType": "bytes32",
          "name": "salt",
          "type": "bytes32"
        },
        {
          "internalType": "uint256[]",
          "name": "extensions",
          "type": "uint256[]"
        }
      ],
      "stateMutability": "view",
      "type": "function"
    },
    {
      "inputs": [
        {
          "internalType": "uint256",
          "name": "timepoint",
          "type": "uint256"
        }
      ],
      "name": "getPastTotalSupply",
      "outputs": [
        {
          "internalType": "uint256",
          "name": "",
          "type": "uint256"
        }
      ],
      "stateMutability": "view",
      "type": "function"
    },
    {
      "inputs": [
        {
          "internalType": "address",
          "name": "account",
          "type": "address"
        },
        {
          "internalType": "uint256",
          "name": "timepoint",
          "type": "uint256"
        }
      ],
      "name": "getPastVotes",
      "outputs": [
        {
          "internalType": "uint256",
          "name": "",
          "type": "uint256"
        }
      ],
      "stateMutability": "view",
      "type": "function"
    },
    {
      "inputs": [
        {
          "internalType": "address",
          "name": "account",
          "type": "address"
        }
      ],
      "name": "getVotes",
      "outputs": [
        {
          "internalType": "uint256",
          "name": "",
          "type": "uint256"
        }
      ],
      "stateMutability": "view",
      "type": "function"
    },
    {
      "inputs": [],
      "name": "name",
      "outputs": [
        {
          "internalType": "string",
          "name": "",
          "type": "string"
        }
      ],
      "stateMutability": "view",
      "type": "function"
    },
    {
      "inputs": [
        {
          "internalType": "address",
          "name": "owner",
          "type": "address"
        }
      ],
      "name": "nonces",
      "outputs": [
        {
          "internalType": "uint256",
          "name": "",
          "type": "uint256"
        }
      ],
      "stateMutability": "view",
      "type": "function"
    },
    {
      "inputs": [
        {
          "internalType": "address",
          "name": "account",
          "type": "address"
        }
      ],
      "name": "numCheckpoints",
      "outputs": [
        {
          "internalType": "uint32",
          "name": "",
          "type": "uint32"
        }
      ],
      "stateMutability": "view",
      "type": "function"
    },
    {
      "inputs": [
        {
          "internalType": "address",
          "name": "owner",
          "type": "address"
        },
        {
          "internalType": "address",
          "name": "spender",
          "type": "address"
        },
        {
          "internalType": "uint256",
          "name": "value",
          "type": "uint256"
        },
        {
          "internalType": "uint256",
          "name": "deadline",
          "type": "uint256"
        },
        {
          "internalType": "uint8",
          "name": "v",
          "type": "uint8"
        },
        {
          "internalType": "bytes32",
          "name": "r",
          "type": "bytes32"
        },
        {
          "internalType": "bytes32",
          "name": "s",
          "type": "bytes32"
        }
      ],
      "name": "permit",
      "outputs": [],
      "stateMutability": "nonpayable",
      "type": "function"
    },
    {
      "inputs": [],
      "name": "symbol",
      "outputs": [
        {
          "internalType": "string",
          "name": "",
          "type": "string"
        }
      ],
      "stateMutability": "view",
      "type": "function"
    },
    {
      "inputs": [],
      "name": "totalSupply",
      "outputs": [
        {
          "internalType": "uint256",
          "name": "",
          "type": "uint256"
        }
      ],
      "stateMutability": "view",
      "type": "function"
    },
    {
      "inputs": [
        {
          "internalType": "address",
          "name": "to",
          "type": "address"
        },
        {
          "internalType": "uint256",
          "name": "value",
          "type": "uint256"
        }
      ],
      "name": "transfer",
      "outputs": [
        {
          "internalType": "bool",
          "name": "",
          "type": "bool"
        }
      ],
      "stateMutability": "nonpayable",
      "type": "function"
    },
    {
      "inputs": [
        {
          "internalType": "address",
          "name": "from",
          "type": "address"
        },
        {
          "internalType": "address",
          "name": "to",
          "type": "address"
        },
        {
          "internalType": "uint256",
          "name": "value",
          "type": "uint256"
        }
      ],
      "name": "transferFrom",
      "outputs": [
        {
          "internalType": "bool",
          "name": "",
          "type": "bool"
        }
      ],
      "stateMutability": "nonpayable",
      "type": "function"
    }
  ],
  "bytecode": "0x61016060405234801562000011575f80fd5b50604051620029133803806200291383398101604081905262000034916200093b565b6040518060400160405280600e81526020016d4a6f7365476f7665726e616e636560901b81525080604051806040016040528060018152602001603160f81b8152506040518060400160405280600e81526020016d4a6f7365476f7665726e616e636560901b815250604051806040016040528060048152602001632523a7ab60e11b8152508160039081620000cb9190620009f0565b506004620000da8282620009f0565b50620000ec9150839050600562000237565b61012052620000fd81600662000237565b61014052815160208084019190912060e052815190820120610100524660a0526200018a60e05161010051604080517f8b73c3c69bb8fe3d512ecc4cf759cc79239f7b179b0ffacaa9a75d522b39400f60208201529081019290925260608201524660808201523060a08201525f9060c00160405160208183030381529060405280519060200120905090565b60805250503060c0525069d3c21bcecceda1000000620001b382670de0b6b3a764000062000ad0565b1115620002115760405162461bcd60e51b815260206004820152602160248201527f496e697469616c20737570706c792065786365656473206d617820737570706c6044820152607960f81b60648201526084015b60405180910390fd5b62000230336200022a83670de0b6b3a764000062000ad0565b6200026f565b5062000bd5565b5f60208351101562000256576200024e83620002ab565b905062000269565b81620002638482620009f0565b5060ff90505b92915050565b6001600160a01b0382166200029a5760405163ec442f0560e01b81525f600482015260240162000208565b620002a75f8383620002ed565b5050565b5f80829050601f81511115620002d8578260405163305a27a960e01b815260040162000208919062000aea565b8051620002e58262000b38565b179392505050565b620002fa838383620002ff565b505050565b6200030c8383836200036d565b6001600160a01b03831662000360575f6200032660025490565b90506001600160d01b03808211156200035d57604051630e58ae9360e11b8152600481018390526024810182905260440162000208565b50505b620002fa8383836200049c565b6001600160a01b0383166200039b578060025f8282546200038f919062000b5c565b909155506200040d9050565b6001600160a01b0383165f9081526020819052604090205481811015620003ef5760405163391434e360e21b81526001600160a01b0385166004820152602481018290526044810183905260640162000208565b6001600160a01b0384165f9081526020819052604090209082900390555b6001600160a01b0382166200042b5760028054829003905562000449565b6001600160a01b0382165f9081526020819052604090208054820190555b816001600160a01b0316836001600160a01b03167fddf252ad1be2c89b69c2b068fc378daa952ba7f163c4a11628f55a4df523b3ef836040516200048f91815260200190565b60405180910390a3505050565b6001600160a01b038316620004d157620004ce600a620008486200053360201b17620004c88462000547565b62000580565b50505b6001600160a01b0382166200050057620004fd600a62000853620005bc60201b17620004c88462000547565b50505b6001600160a01b038381165f90815260086020526040808220548584168352912054620002fa92918216911683620005c9565b5f62000540828462000b72565b9392505050565b5f6001600160d01b038211156200057c576040516306dfcc6560e41b815260d060048201526024810183905260440162000208565b5090565b5f80620005af620005906200072b565b620005a66200059f886200073b565b868860201c565b87919062000787565b915091505b935093915050565b5f62000540828462000b9c565b816001600160a01b0316836001600160a01b031614158015620005eb57505f81115b15620002fa576001600160a01b038316156200068c576001600160a01b0383165f90815260096020908152604082208291620006389190620005bc901b6200085317620004c88662000547565b6001600160d01b031691506001600160d01b03169150846001600160a01b03165f80516020620028f3833981519152838360405162000681929190918252602082015260400190565b60405180910390a250505b6001600160a01b03821615620002fa576001600160a01b0382165f90815260096020908152604082208291620006d3919062000533901b6200084817620004c88662000547565b6001600160d01b031691506001600160d01b03169150836001600160a01b03165f80516020620028f383398151915283836040516200071c929190918252602082015260400190565b60405180910390a25050505050565b5f6200073662000796565b905090565b80545f9080156200077f5762000765836200075860018462000bbf565b5f91825260209091200190565b54660100000000000090046001600160d01b031662000540565b5f9392505050565b5f80620005af858585620007a2565b5f620007364362000907565b82545f9081908015620008a9575f620007c2876200075860018562000bbf565b805490915065ffffffffffff80821691660100000000000090046001600160d01b03169088168211156200080957604051632520601d60e01b815260040160405180910390fd5b8765ffffffffffff168265ffffffffffff16036200084757825465ffffffffffff1666010000000000006001600160d01b038916021783556200089a565b6040805180820190915265ffffffffffff808a1682526001600160d01b03808a1660208085019182528d54600181018f555f8f815291909120945191519092166601000000000000029216919091179101555b9450859350620005b492505050565b50506040805180820190915265ffffffffffff80851682526001600160d01b0380851660208085019182528854600181018a555f8a8152918220955192519093166601000000000000029190931617920191909155905081620005b4565b5f65ffffffffffff8211156200057c576040516306dfcc6560e41b8152603060048201526024810183905260440162000208565b5f602082840312156200094c575f80fd5b5051919050565b634e487b7160e01b5f52604160045260245ffd5b600181811c908216806200097c57607f821691505b6020821081036200099b57634e487b7160e01b5f52602260045260245ffd5b50919050565b601f821115620002fa57805f5260205f20601f840160051c81016020851015620009c85750805b601f840160051c820191505b81811015620009e9575f8155600101620009d4565b5050505050565b81516001600160401b0381111562000a0c5762000a0c62000953565b62000a248162000a1d845462000967565b84620009a1565b602080601f83116001811462000a5a575f841562000a425750858301515b5f19600386901b1c1916600185901b17855562000ab4565b5f85815260208120601f198616915b8281101562000a8a5788860151825594840194600190910190840162000a69565b508582101562000aa857878501515f19600388901b60f8161c191681555b505060018460011b0185555b505050505050565b634e487b7160e01b5f52601160045260245ffd5b808202811582820484141762000269576200026962000abc565b5f602080835283518060208501525f5b8181101562000b185785810183015185820160400152820162000afa565b505f604082860101526040601f19601f8301168501019250505092915050565b805160208083015191908110156200099b575f1960209190910360031b1b16919050565b8082018082111562000269576200026962000abc565b6001600160d01b0381811683821601908082111562000b955762000b9562000abc565b5092915050565b6001600160d01b0382811682821603908082111562000b955762000b9562000abc565b8181038181111562000269576200026962000abc565b60805160a05160c05160e051610100516101205161014051611ccc62000c275f395f610c5d01525f610c3001525f610a2201525f6109fa01525f61095501525f61097f01525f6109a90152611ccc5ff3fe608060405234801561000f575f80fd5b5060043610610153575f3560e01c806370a08231116100bf5780639ab24eb0116100795780639ab24eb014610310578063a9059cbb14610323578063c3cda52014610336578063d505accf14610349578063dd62ed3e1461035c578063f1127ed814610394575f80fd5b806370a08231146102805780637ecebe00146102a857806384b0196e146102bb5780638e539e8c146102d657806391ddadf4146102e957806395d89b4114610308575f80fd5b80633644e515116101105780633644e515146101dd5780633a46b1a8146101e55780634bf5d7e9146101f8578063587cde1e146102005780635c19a95c146102435780636fcfff4514610258575f80fd5b806306fdde0314610157578063095ea7b31461017557806318160ddd1461019857806323b872dd146101aa578063313ce567146101bd57806332cb6b0c146101cc575b5f80fd5b61015f6103d3565b60405161016c9190611915565b60405180910390f35b610188610183366004611942565b610463565b604051901515815260200161016c565b6002545b60405190815260200161016c565b6101886101b836600461196a565b61047c565b6040516012815260200161016c565b61019c69d3c21bcecceda100000081565b61019c61049f565b61019c6101f3366004611942565b6104ad565b61015f6104e7565b61022b61020e3660046119a3565b6001600160a01b039081165f908152600860205260409020541690565b6040516001600160a01b03909116815260200161016c565b6102566102513660046119a3565b61055f565b005b61026b6102663660046119a3565b61056e565b60405163ffffffff909116815260200161016c565b61019c61028e3660046119a3565b6001600160a01b03165f9081526020819052604090205490565b61019c6102b63660046119a3565b610578565b6102c3610582565b60405161016c97969594939291906119bc565b61019c6102e4366004611a53565b6105c4565b6102f16105e8565b60405165ffffffffffff909116815260200161016c565b61015f6105f1565b61019c61031e3660046119a3565b610600565b610188610331366004611942565b610620565b610256610344366004611a7a565b61062d565b610256610357366004611ace565b6106ee565b61019c61036a366004611b33565b6001600160a01b039182165f90815260016020908152604080832093909416825291909152205490565b6103a76103a2366004611b64565b610824565b60408051825165ffffffffffff1681526020928301516001600160d01b0316928101929092520161016c565b6060600380546103e290611ba1565b80601f016020809104026020016040519081016040528092919081815260200182805461040e90611ba1565b80156104595780601f1061043057610100808354040283529160200191610459565b820191905f5260205f20905b81548152906001019060200180831161043c57829003601f168201915b5050505050905090565b5f3361047081858561085e565b60019150505b92915050565b5f33610489858285610870565b6104948585856108ec565b506001949350505050565b5f6104a8610949565b905090565b5f6104d76104ba83610a72565b6001600160a01b0385165f90815260096020526040902090610ac0565b6001600160d01b03169392505050565b60606104f1610b70565b65ffffffffffff166105016105e8565b65ffffffffffff1614610527576040516301bfc1c560e61b815260040160405180910390fd5b5060408051808201909152601d81527f6d6f64653d626c6f636b6e756d6265722666726f6d3d64656661756c74000000602082015290565b3361056a8183610b7a565b5050565b5f61047682610beb565b5f61047682610c0c565b5f6060805f805f6060610593610c29565b61059b610c56565b604080515f80825260208201909252600f60f81b9b939a50919850469750309650945092509050565b5f6105d96105d183610a72565b600a90610ac0565b6001600160d01b031692915050565b5f6104a8610b70565b6060600480546103e290611ba1565b6001600160a01b0381165f9081526009602052604081206105d990610c83565b5f336104708185856108ec565b8342111561065657604051632341d78760e11b8152600481018590526024015b60405180910390fd5b604080517fe48329057bfd03d55e49b547132e39cffd9c1820ad7b9d4c5307691425d15adf60208201526001600160a01b0388169181019190915260608101869052608081018590525f906106cf906106c79060a00160405160208183030381529060405280519060200120610cba565b858585610ce6565b90506106db8187610d12565b6106e58188610b7a565b50505050505050565b834211156107125760405163313c898160e11b81526004810185905260240161064d565b5f7f6e71edae12b1b97f4d1f60370fef10105fa2faae0126114a169c64845d6126c988888861075d8c6001600160a01b03165f90815260076020526040902080546001810190915590565b6040805160208101969096526001600160a01b0394851690860152929091166060840152608083015260a082015260c0810186905260e0016040516020818303038152906040528051906020012090505f6107b782610cba565b90505f6107c682878787610ce6565b9050896001600160a01b0316816001600160a01b03161461080d576040516325c0072360e11b81526001600160a01b0380831660048301528b16602482015260440161064d565b6108188a8a8a61085e565b50505050505050505050565b604080518082019091525f80825260208201526108418383610d64565b9392505050565b5f6108418284611bed565b5f6108418284611c14565b61086b8383836001610d98565b505050565b6001600160a01b038381165f908152600160209081526040808320938616835292905220545f198110156108e657818110156108d857604051637dc7a0d960e11b81526001600160a01b0384166004820152602481018290526044810183905260640161064d565b6108e684848484035f610d98565b50505050565b6001600160a01b03831661091557604051634b637e8f60e11b81525f600482015260240161064d565b6001600160a01b03821661093e5760405163ec442f0560e01b81525f600482015260240161064d565b61086b838383610e6a565b5f306001600160a01b037f0000000000000000000000000000000000000000000000000000000000000000161480156109a157507f000000000000000000000000000000000000000000000000000000000000000046145b156109cb57507f000000000000000000000000000000000000000000000000000000000000000090565b6104a8604080517f8b73c3c69bb8fe3d512ecc4cf759cc79239f7b179b0ffacaa9a75d522b39400f60208201527f0000000000000000000000000000000000000000000000000000000000000000918101919091527f000000000000000000000000000000000000000000000000000000000000000060608201524660808201523060a08201525f9060c00160405160208183030381529060405280519060200120905090565b5f80610a7c6105e8565b90508065ffffffffffff168310610ab757604051637669fc0f60e11b81526004810184905265ffffffffffff8216602482015260440161064d565b61084183610e75565b81545f9081816005811115610b1c575f610ad984610eab565b610ae39085611c34565b5f8881526020902090915081015465ffffffffffff9081169087161015610b0c57809150610b1a565b610b17816001611c47565b92505b505b5f610b2987878585611003565b90508015610b6357610b4d87610b40600184611c34565b5f91825260209091200190565b54600160301b90046001600160d01b0316610b65565b5f5b979650505050505050565b5f6104a843610e75565b6001600160a01b038281165f8181526008602052604080822080548686166001600160a01b0319821681179092559151919094169392849290917f3134e8a2e6d97e929a7e54011ea5485d7d196dd5f0ba4d4ef95803e8e3fc257f9190a461086b8183610be686611059565b611076565b6001600160a01b0381165f90815260096020526040812054610476906111df565b6001600160a01b0381165f90815260076020526040812054610476565b60606104a87f0000000000000000000000000000000000000000000000000000000000000000600561120f565b60606104a87f0000000000000000000000000000000000000000000000000000000000000000600661120f565b80545f908015610cb257610c9c83610b40600184611c34565b54600160301b90046001600160d01b0316610841565b5f9392505050565b5f610476610cc6610949565b8360405161190160f01b8152600281019290925260228201526042902090565b5f805f80610cf6888888886112b8565b925092509250610d068282611380565b50909695505050505050565b6001600160a01b0382165f90815260076020526040902080546001810190915581811461086b576040516301d4b62360e61b81526001600160a01b03841660048201526024810182905260440161064d565b604080518082019091525f80825260208201526001600160a01b0383165f9081526009602052604090206108419083611438565b6001600160a01b038416610dc15760405163e602df0560e01b81525f600482015260240161064d565b6001600160a01b038316610dea57604051634a1406b160e11b81525f600482015260240161064d565b6001600160a01b038085165f90815260016020908152604080832093871683529290522082905580156108e657826001600160a01b0316846001600160a01b03167f8c5be1e5ebec7d5bd14f71427d1e84f3dd0314c0f7b2291e5b200ac8c7c3b92584604051610e5c91815260200190565b60405180910390a350505050565b61086b8383836114a5565b5f65ffffffffffff821115610ea7576040516306dfcc6560e41b8152603060048201526024810183905260440161064d565b5090565b5f60018211610eb8575090565b816001600160801b8210610ed15760809190911c9060401b5b680100000000000000008210610eec5760409190911c9060201b5b6401000000008210610f035760209190911c9060101b5b620100008210610f185760109190911c9060081b5b6101008210610f2c5760089190911c9060041b5b60108210610f3f5760049190911c9060021b5b60048210610f4b5760011b5b600302600190811c90818581610f6357610f63611c5a565b048201901c90506001818581610f7b57610f7b611c5a565b048201901c90506001818581610f9357610f93611c5a565b048201901c90506001818581610fab57610fab611c5a565b048201901c90506001818581610fc357610fc3611c5a565b048201901c90506001818581610fdb57610fdb611c5a565b048201901c9050610ffa818581610ff457610ff4611c5a565b04821190565b90039392505050565b5f5b81831015611051575f85815260209020838316600285851804019081015465ffffffffffff8681169116111561103d5780925061104b565b611048816001611c47565b93505b50611005565b509392505050565b6001600160a01b0381165f90815260208190526040812054610476565b816001600160a01b0316836001600160a01b03161415801561109757505f81115b1561086b576001600160a01b0383161561113e576001600160a01b0383165f90815260096020526040812081906110d9906108536110d48661150b565b61153e565b6001600160d01b031691506001600160d01b03169150846001600160a01b03167fdec2bacdd2f05b59de34da9b523dff8be42e5e38e818c82fdb0bae774387a7248383604051611133929190918252602082015260400190565b60405180910390a250505b6001600160a01b0382161561086b576001600160a01b0382165f9081526009602052604081208190611176906108486110d48661150b565b6001600160d01b031691506001600160d01b03169150836001600160a01b03167fdec2bacdd2f05b59de34da9b523dff8be42e5e38e818c82fdb0bae774387a72483836040516111d0929190918252602082015260400190565b60405180910390a25050505050565b5f63ffffffff821115610ea7576040516306dfcc6560e41b8152602060048201526024810183905260440161064d565b606060ff83146112295761122283611576565b9050610476565b81805461123590611ba1565b80601f016020809104026020016040519081016040528092919081815260200182805461126190611ba1565b80156112ac5780601f10611283576101008083540402835291602001916112ac565b820191905f5260205f20905b81548152906001019060200180831161128f57829003601f168201915b50505050509050610476565b5f80807f7fffffffffffffffffffffffffffffff5d576e7357a4501ddfe92f46681b20a08411156112f157505f91506003905082611376565b604080515f808252602082018084528a905260ff891692820192909252606081018790526080810186905260019060a0016020604051602081039080840390855afa158015611342573d5f803e3d5ffd5b5050604051601f1901519150506001600160a01b03811661136d57505f925060019150829050611376565b92505f91508190505b9450945094915050565b5f82600381111561139357611393611c6e565b0361139c575050565b60018260038111156113b0576113b0611c6e565b036113ce5760405163f645eedf60e01b815260040160405180910390fd5b60028260038111156113e2576113e2611c6e565b036114035760405163fce698f760e01b81526004810182905260240161064d565b600382600381111561141757611417611c6e565b0361056a576040516335e2f38360e21b81526004810182905260240161064d565b604080518082019091525f8082526020820152825f018263ffffffff168154811061146557611465611c82565b5f9182526020918290206040805180820190915291015465ffffffffffff81168252600160301b90046001600160d01b0316918101919091529392505050565b6114b08383836115b3565b6001600160a01b038316611500575f6114c860025490565b90506001600160d01b03808211156114fd57604051630e58ae9360e11b8152600481018390526024810182905260440161064d565b50505b61086b8383836116d9565b5f6001600160d01b03821115610ea7576040516306dfcc6560e41b815260d060048201526024810183905260440161064d565b5f8061156961154b6105e8565b61156161155788610c83565b868863ffffffff16565b87919061174e565b915091505b935093915050565b60605f6115828361175b565b6040805160208082528183019092529192505f91906020820181803683375050509182525060208101929092525090565b6001600160a01b0383166115dd578060025f8282546115d29190611c47565b9091555061164d9050565b6001600160a01b0383165f908152602081905260409020548181101561162f5760405163391434e360e21b81526001600160a01b0385166004820152602481018290526044810183905260640161064d565b6001600160a01b0384165f9081526020819052604090209082900390555b6001600160a01b03821661166957600280548290039055611687565b6001600160a01b0382165f9081526020819052604090208054820190555b816001600160a01b0316836001600160a01b03167fddf252ad1be2c89b69c2b068fc378daa952ba7f163c4a11628f55a4df523b3ef836040516116cc91815260200190565b60405180910390a3505050565b6001600160a01b0383166116fb576116f8600a6108486110d48461150b565b50505b6001600160a01b03821661171d5761171a600a6108536110d48461150b565b50505b6001600160a01b038381165f9081526008602052604080822054858416835291205461086b92918216911683611076565b5f80611569858585611782565b5f60ff8216601f81111561047657604051632cd44ac360e21b815260040160405180910390fd5b82545f9081908015611878575f61179e87610b40600185611c34565b805490915065ffffffffffff80821691600160301b90046001600160d01b03169088168211156117e157604051632520601d60e01b815260040160405180910390fd5b8765ffffffffffff168265ffffffffffff160361181a57825465ffffffffffff16600160301b6001600160d01b0389160217835561186a565b6040805180820190915265ffffffffffff808a1682526001600160d01b03808a1660208085019182528d54600181018f555f8f81529190912094519151909216600160301b029216919091179101555b945085935061156e92505050565b50506040805180820190915265ffffffffffff80851682526001600160d01b0380851660208085019182528854600181018a555f8a815291822095519251909316600160301b02919093161792019190915590508161156e565b5f81518084525f5b818110156118f6576020818501810151868301820152016118da565b505f602082860101526020601f19601f83011685010191505092915050565b602081525f61084160208301846118d2565b80356001600160a01b038116811461193d575f80fd5b919050565b5f8060408385031215611953575f80fd5b61195c83611927565b946020939093013593505050565b5f805f6060848603121561197c575f80fd5b61198584611927565b925061199360208501611927565b9150604084013590509250925092565b5f602082840312156119b3575f80fd5b61084182611927565b60ff60f81b881681525f602060e060208401526119dc60e084018a6118d2565b83810360408501526119ee818a6118d2565b606085018990526001600160a01b038816608086015260a0850187905284810360c0860152855180825260208088019350909101905f5b81811015611a4157835183529284019291840191600101611a25565b50909c9b505050505050505050505050565b5f60208284031215611a63575f80fd5b5035919050565b803560ff8116811461193d575f80fd5b5f805f805f8060c08789031215611a8f575f80fd5b611a9887611927565b95506020870135945060408701359350611ab460608801611a6a565b92506080870135915060a087013590509295509295509295565b5f805f805f805f60e0888a031215611ae4575f80fd5b611aed88611927565b9650611afb60208901611927565b95506040880135945060608801359350611b1760808901611a6a565b925060a0880135915060c0880135905092959891949750929550565b5f8060408385031215611b44575f80fd5b611b4d83611927565b9150611b5b60208401611927565b90509250929050565b5f8060408385031215611b75575f80fd5b611b7e83611927565b9150602083013563ffffffff81168114611b96575f80fd5b809150509250929050565b600181811c90821680611bb557607f821691505b602082108103611bd357634e487b7160e01b5f52602260045260245ffd5b50919050565b634e487b7160e01b5f52601160045260245ffd5b6001600160d01b03818116838216019080821115611c0d57611c0d611bd9565b5092915050565b6001600160d01b03828116828216039080821115611c0d57611c0d611bd9565b8181038181111561047657610476611bd9565b8082018082111561047657610476611bd9565b634e487b7160e01b5f52601260045260245ffd5b634e487b7160e01b5f52602160045260245ffd5b634e487b7160e01b5f52603260045260245ffdfea26469706673582212205c5d6a082d3c25897f91331a1ffd626f350fea1d5a8f8e4f271eb7d2c416aa1264736f6c63430008180033dec2bacdd2f05b59de34da9b523dff8be42e5e38e818c82fdb0bae774387a724",
  "linkReferences": {},
  "deployedLinkReferences": {}
}