{
  "_format": "hh-sol-artifact-1",
  "contractName": "JoseDAO",
  "sourceName": "contracts/JoseDAO.sol",
  "abi": [
    {
      "inputs": [
        {
          "internalType": "address",
          "name": "_governanceToken",
          "type": "address"
        }
      ],
      "stateMutability": "nonpayable",
      "type": "constructor"
    },
    {
      "anonymous": false,
      "inputs": [
        {
          "indexed": true,
          "internalType": "uint256",
          "name": "proposalId",
          "type": "uint256"
        }
      ],
      "name": "ProposalCanceled",
      "type": "event"
    },
    {
      "anonymous": false,
      "inputs": [
        {
          "indexed": false,
          "internalType": "uint256",
          "name": "id",
          "type": "uint256"
        },
        {
          "indexed": true,
          "internalType": "address",
          "name": "proposer",
          "type": "address"
        },
        {
          "indexed": false,
          "internalType": "string",
          "name": "title",
          "type": "string"
        },
        {
          "indexed": false,
          "internalType": "uint256",
          "name": "startTime",
          "type": "uint256"
        },
        {
          "indexed": false,
          "internalType": "uint256",
          "name": "endTime",
          "type": "uint256"
        }
      ],
      "name": "ProposalCreated",
      "type": "event"
    },
    {
      "anonymous": false,
      "inputs": [
        {
          "indexed": true,
          "internalType": "uint256",
          "name": "proposalId",
          "type": "uint256"
        }
      ],
      "name": "ProposalExecuted",
      "type": "event"
    },
    {
      "anonymous": false,
      "inputs": [
        {
          "indexed": true,
          "internalType": "uint256",
          "name": "proposalId",
          "type": "uint256"
        },
        {
          "indexed": false,
          "internalType": "uint256",
          "name": "queuedAt",
          "type": "uint256"
        }
      ],
      "name": "ProposalQueued",
      "type": "event"
    },
    {
      "anonymous": false,
      "inputs": [
        {
          "indexed": true,
          "internalType": "uint256",
          "name": "proposalId",
          "type": "uint256"
        },
        {
          "indexed": true,
          "internalType": "address",
          "name": "voter",
          "type": "address"
        },
        {
          "indexed": false,
          "internalType": "bool",
          "name": "support",
          "type": "bool"
        },
        {
          "indexed": false,
          "internalType": "uint256",
          "name": "weight",
          "type": "uint256"
        }
      ],
      "name": "VoteCast",
      "type": "event"
    },
    {
      "inputs": [],
      "name": "QUORUM_PERCENT",
      "outputs": [
        {
          "internalType": "uint256",
          "name": "",
          "type": "uint256"
        }
      ],
      "stateMutability": "view",
      "type": "function"
    },
    {
      "inputs": [],
      "name": "TIMELOCK_DELAY",
      "outputs": [
        {
          "internalType": "uint256",
          "name": "",
          "type": "uint256"
        }
      ],
      "stateMutability": "view",
      "type": "function"
    },
    {
      "inputs": [],
      "name": "VOTING_PERIOD",
      "outputs": [
        {
          "internalType": "uint256",
          "name": "",
          "type": "uint256"
        }
      ],
      "stateMutability": "view",
      "type": "function"
    },
    {
      "inputs": [
        {
          "internalType": "uint256",
          "name": "_proposalId",
          "type": "uint256"
        }
      ],
      "name": "cancelProposal",
      "outputs": [],
      "stateMutability": "nonpayable",
      "type": "function"
    },
    {
      "inputs": [
        {
          "internalType": "uint256",
          "name": "_proposalId",
          "type": "uint256"
        },
        {
          "internalType": "bool",
          "name": "_support",
          "type": "bool"
        }
      ],
      "name": "castVote",
      "outputs": [],
      "stateMutability": "nonpayable",
      "type": "function"
    },
    {
      "inputs": [
        {
          "internalType": "string",
          "name": "_title",
          "type": "string"
        },
        {
          "internalType": "string",
          "name": "_description",
          "type": "string"
        }
      ],
      "name": "createProposal",
      "outputs": [
        {
          "internalType": "uint256",
          "name": "",
          "type": "uint256"
        }
      ],
      "stateMutability": "nonpayable",
      "type": "function"
    },
    {
      "inputs": [
        {
          "internalType": "uint256",
          "name": "_proposalId",
          "type": "uint256"
        }
      ],
      "name": "executeProposal",
      "outputs": [],
      "stateMutability": "nonpayable",
      "type": "function"
    },
    {
      "inputs": [],
      "name": "getProposalCount",
      "outputs": [
        {
          "internalType": "uint256",
          "name": "",
          "type": "uint256"
        }
      ],
      "stateMutability": "view",
      "type": "function"
    },
    {
      "inputs": [
        {
          "internalType": "uint256",
          "name": "_proposalId",
          "type": "uint256"
        }
      ],
      "name": "getProposalState",
      "outputs": [
        {
          "internalType": "enum JoseDAO.ProposalState",
          "name": "",
          "type": "uint8"
        }
      ],
      "stateMutability": "view",
      "type": "function"
    },
    {
      "inputs": [],
      "name": "getQuorumRequired",
      "outputs": [
        {
          "internalType": "uint256",
          "name": "",
          "type": "uint256"
        }
      ],
      "stateMutability": "view",
      "type": "function"
    },
    {
      "inputs": [],
      "name": "governanceToken",
      "outputs": [
        {
          "internalType": "contract GovernanceToken",
          "name": "",
          "type": "address"
        }
      ],
      "stateMutability": "view",
      "type": "function"
    },
    {
      "inputs": [
        {
          "internalType": "uint256",
          "name": "",
          "type": "uint256"
        },
        {
          "internalType": "address",
          "name": "",
          "type": "address"
        }
      ],
      "name": "hasVoted",
      "outputs": [
        {
          "internalType": "bool",
          "name": "",
          "type": "bool"
        }
      ],
      "stateMutability": "view",
      "type": "function"
    },
    {
      "inputs": [],
      "name": "proposalCount",
      "outputs": [
        {
          "internalType": "uint256",
          "name": "",
          "type": "uint256"
        }
      ],
      "stateMutability": "view",
      "type": "function"
    },
    {
      "inputs": [
        {
          "internalType": "uint256",
          "name": "",
          "type": "uint256"
        }
      ],
      "name": "proposals",
      "outputs": [
        {
          "internalType": "uint256",
          "name": "id",
          "type": "uint256"
        },
        {
          "internalType": "address",
          "name": "proposer",
          "type": "address"
        },
        {
          "internalType": "string",
          "name": "title",
          "type": "string"
        },
        {
          "internalType": "string",
          "name": "description",
          "type": "string"
        },
        {
          "internalType": "uint256",
          "name": "votesFor",
          "type": "uint256"
        },
        {
          "internalType": "uint256",
          "name": "votesAgainst",
          "type": "uint256"
        },
        {
          "internalType": "uint256",
          "name": "startTime",
          "type": "uint256"
        },
        {
          "internalType": "uint256",
          "name": "endTime",
          "type": "uint256"
        },
        {
          "internalType": "uint256",
          "name": "queuedAt",
          "type": "uint256"
        },
        {
          "internalType": "bool",
          "name": "executed",
          "type": "bool"
        },
        {
          "internalType": "bool",
          "name": "canceled",
          "type": "bool"
        }
      ],
      "stateMutability": "view",
      "type": "function"
    },
    {
      "inputs": [
        {
          "internalType": "uint256",
          "name": "_proposalId",
          "type": "uint256"
        }
      ],
      "name": "queueProposal",
      "outputs": [],
      "stateMutability": "nonpayable",
      "type": "function"
    },
    {
      "inputs": [
        {
          "internalType": "uint256",
          "name": "",
          "type": "uint256"
        },
        {
          "internalType": "address",
          "name": "",
          "type": "address"
        }
      ],
      "name": "voteWeight",
      "outputs": [
        {
          "internalType": "uint256",
          "name": "",
          "type": "uint256"
        }
      ],
      "stateMutability": "view",
      "type": "function"
    }
  ],
  "bytecode": "0x608060405234801561000f575f80fd5b5060405161169b38038061169b83398101604081905261002e91610052565b5f80546001600160a01b0319166001600160a01b039290921691909117905561007f565b5f60208284031215610062575f80fd5b81516001600160a01b0381168114610078575f80fd5b9392505050565b61160f8061008c5f395ff3fe608060405234801561000f575f80fd5b50600436106100fb575f3560e01c80639080936f11610093578063c08cc02d11610063578063c08cc02d14610239578063da35c66414610241578063e0a8f6f51461024a578063f96dae0a1461025d575f80fd5b80639080936f146101f457806394a14a3414610214578063a2d489d614610227578063b1610d7e1461022f575f80fd5b80632b0a999d116100ce5780632b0a999d14610170578063438596321461019a5780635ba1c1a9146101d757806365e481e2146101e1575f80fd5b8063013cf08b146100ff5780630d61b5191461013257806315373e3d14610147578063208fb5901461015a575b5f80fd5b61011261010d366004611137565b610287565b6040516101299b9a99989796959493929190611191565b60405180910390f35b610145610140366004611137565b6103f9565b005b610145610155366004611210565b6105ab565b610162600a81565b604051908152602001610129565b61016261017e366004611242565b600460209081525f928352604080842090915290825290205481565b6101c76101a8366004611242565b600360209081525f928352604080842090915290825290205460ff1681565b6040519015158152602001610129565b6101626201518081565b6101626101ef36600461130d565b610876565b610207610202366004611137565b610b1a565b6040516101299190611381565b610145610222366004611137565b610e38565b610162610f99565b6101626203f48081565b600154610162565b61016260015481565b610145610258366004611137565b611029565b5f5461026f906001600160a01b031681565b6040516001600160a01b039091168152602001610129565b600260208190525f918252604090912080546001820154928201805491936001600160a01b031692916102b9906113a7565b80601f01602080910402602001604051908101604052809291908181526020018280546102e5906113a7565b80156103305780601f1061030757610100808354040283529160200191610330565b820191905f5260205f20905b81548152906001019060200180831161031357829003601f168201915b505050505090806003018054610345906113a7565b80601f0160208091040260200160405190810160405280929190818152602001828054610371906113a7565b80156103bc5780601f10610393576101008083540402835291602001916103bc565b820191905f5260205f20905b81548152906001019060200180831161039f57829003601f168201915b5050506004840154600585015460068601546007870154600888015460099098015496979396929550909350919060ff808216916101009004168b565b5f818152600260205260409020805461042d5760405162461bcd60e51b8152600401610424906113df565b60405180910390fd5b5f8160080154116104765760405162461bcd60e51b8152602060048201526013602482015272141c9bdc1bdcd85b081b9bdd081c5d595d5959606a1b6044820152606401610424565b620151808160080154610489919061142a565b4210156104d85760405162461bcd60e51b815260206004820152601760248201527f54696d656c6f636b20686173206e6f74207061737365640000000000000000006044820152606401610424565b600981015460ff16156105205760405162461bcd60e51b815260206004820152601060248201526f105b1c9958591e48195e1958dd5d195960821b6044820152606401610424565b6009810154610100900460ff161561056e5760405162461bcd60e51b8152602060048201526011602482015270141c9bdc1bdcd85b0818d85b98d95b1959607a1b6044820152606401610424565b60098101805460ff1916600117905560405182907f712ae1383f79ac853f8d882153778e0260ef8f03b504e2866e0593e04d2b291f905f90a25050565b5f82815260026020526040902080546105d65760405162461bcd60e51b8152600401610424906113df565b806006015442101561061f5760405162461bcd60e51b8152602060048201526012602482015271159bdd1a5b99c81b9bdd081cdd185c9d195960721b6044820152606401610424565b80600701544211156106665760405162461bcd60e51b815260206004820152601060248201526f159bdd1a5b99c81a185cc8195b99195960821b6044820152606401610424565b5f83815260036020908152604080832033845290915290205460ff16156106bf5760405162461bcd60e51b815260206004820152600d60248201526c105b1c9958591e481d9bdd1959609a1b6044820152606401610424565b6009810154610100900460ff161561070d5760405162461bcd60e51b8152602060048201526011602482015270141c9bdc1bdcd85b0818d85b98d95b1959607a1b6044820152606401610424565b5f80546040516370a0823160e01b81523360048201526001600160a01b03909116906370a0823190602401602060405180830381865afa158015610753573d5f803e3d5ffd5b505050506040513d601f19601f82011682018060405250810190610777919061143d565b90505f81116107ba5760405162461bcd60e51b815260206004820152600f60248201526e2737903b37ba34b733903837bbb2b960891b6044820152606401610424565b5f84815260036020908152604080832033808552908352818420805460ff1916600117905587845260048352818420908452909152902081905582156108185780826004015f82825461080d919061142a565b909155506108319050565b80826005015f82825461082b919061142a565b90915550505b60408051841515815260208101839052339186917fcbdf6214089cba887ecbf35a0b6a734589959c9763342c756bb2a80ca2bc9f6e910160405180910390a350505050565b5f80546040516370a0823160e01b815233600482015282916001600160a01b0316906370a0823190602401602060405180830381865afa1580156108bc573d5f803e3d5ffd5b505050506040513d601f19601f820116820180604052508101906108e0919061143d565b1161093c5760405162461bcd60e51b815260206004820152602660248201527f4d75737420686f6c6420676f7665726e616e636520746f6b656e7320746f2070604482015265726f706f736560d01b6064820152608401610424565b5f8351116109845760405162461bcd60e51b81526020600482015260156024820152745469746c652063616e6e6f7420626520656d70747960581b6044820152606401610424565b60018054905f61099383611454565b909155504290505f6109a86203f4808361142a565b6040805161016081018252600180548083523360208085019182528486018c8152606086018c90525f6080870181905260a0870181905260c087018b905260e087018990526101008701819052610120870181905261014087018190529384526002918290529590922084518155905192810180546001600160a01b0319166001600160a01b0390941693909317909255925193945090929091820190610a4f90826114b8565b5060608201516003820190610a6490826114b8565b506080820151600482015560a0820151600582015560c0820151600682015560e08201516007820155610100808301516008830155610120830151600990920180546101409094015161ffff1990941692151561ff001916929092179215150291909117905560015460405133917f6c98a8c940418b35614f0cd02412d5c9606faff474cbb6cdd6640ba5d1a9f06b91610b049190899087908790611578565b60405180910390a2600154925050505b92915050565b5f8181526002602081815260408084208151610160810183528154815260018201546001600160a01b031693810193909352928301805485949284019190610b61906113a7565b80601f0160208091040260200160405190810160405280929190818152602001828054610b8d906113a7565b8015610bd85780601f10610baf57610100808354040283529160200191610bd8565b820191905f5260205f20905b815481529060010190602001808311610bbb57829003601f168201915b50505050508152602001600382018054610bf1906113a7565b80601f0160208091040260200160405190810160405280929190818152602001828054610c1d906113a7565b8015610c685780601f10610c3f57610100808354040283529160200191610c68565b820191905f5260205f20905b815481529060010190602001808311610c4b57829003601f168201915b505050918352505060048201546020820152600582015460408201526006820154606082015260078201546080820152600882015460a082015260099091015460ff808216151560c084015261010090910416151560e0909101528051909150610ce45760405162461bcd60e51b8152600401610424906113df565b80610140015115610cf85750600192915050565b80610120015115610d0c5750600492915050565b8060e001514211610d1f57505f92915050565b5f8160a001518260800151610d34919061142a565b90505f6064600a5f8054906101000a90046001600160a01b03166001600160a01b03166318160ddd6040518163ffffffff1660e01b8152600401602060405180830381865afa158015610d89573d5f803e3d5ffd5b505050506040513d601f19601f82011682018060405250810190610dad919061143d565b610db791906115a3565b610dc191906115ba565b905080821015610dd657506001949350505050565b8260a00151836080015111610df057506001949350505050565b8261010001515f03610e0757506002949350505050565b62015180836101000151610e1b919061142a565b421015610e2d57506003949350505050565b506002949350505050565b5f8181526002602052604090208054610e635760405162461bcd60e51b8152600401610424906113df565b80600701544211610eac5760405162461bcd60e51b8152602060048201526013602482015272566f74696e67207374696c6c2061637469766560681b6044820152606401610424565b600881015415610eef5760405162461bcd60e51b815260206004820152600e60248201526d105b1c9958591e481c5d595d595960921b6044820152606401610424565b6002610efa83610b1a565b6005811115610f0b57610f0b61136d565b14610f585760405162461bcd60e51b815260206004820152601860248201527f50726f706f73616c20646964206e6f74207375636365656400000000000000006044820152606401610424565b426008820181905560405190815282907f9a2e42fd6722813d69113e7d0079d3d940171428df7373df9c7f7617cfda28929060200160405180910390a25050565b5f6064600a5f8054906101000a90046001600160a01b03166001600160a01b03166318160ddd6040518163ffffffff1660e01b8152600401602060405180830381865afa158015610fec573d5f803e3d5ffd5b505050506040513d601f19601f82011682018060405250810190611010919061143d565b61101a91906115a3565b61102491906115ba565b905090565b5f81815260026020526040902080546110545760405162461bcd60e51b8152600401610424906113df565b60018101546001600160a01b031633146110b05760405162461bcd60e51b815260206004820152601860248201527f4f6e6c792070726f706f7365722063616e2063616e63656c00000000000000006044820152606401610424565b600981015460ff16156110f85760405162461bcd60e51b815260206004820152601060248201526f105b1c9958591e48195e1958dd5d195960821b6044820152606401610424565b60098101805461ff00191661010017905560405182907f789cf55be980739dad1d0699b93b58e806b51c9d96619bfa8fe0a28abaa7b30c905f90a25050565b5f60208284031215611147575f80fd5b5035919050565b5f81518084525f5b8181101561117257602081850181015186830182015201611156565b505f602082860101526020601f19601f83011685010191505092915050565b8b81526001600160a01b038b166020820152610160604082018190525f906111bb8382018d61114e565b905082810360608401526111cf818c61114e565b608084019a909a52505060a081019690965260c086019490945260e08501929092526101008401521515610120830152151561014090910152949350505050565b5f8060408385031215611221575f80fd5b8235915060208301358015158114611237575f80fd5b809150509250929050565b5f8060408385031215611253575f80fd5b8235915060208301356001600160a01b0381168114611237575f80fd5b634e487b7160e01b5f52604160045260245ffd5b5f82601f830112611293575f80fd5b813567ffffffffffffffff808211156112ae576112ae611270565b604051601f8301601f19908116603f011681019082821181831017156112d6576112d6611270565b816040528381528660208588010111156112ee575f80fd5b836020870160208301375f602085830101528094505050505092915050565b5f806040838503121561131e575f80fd5b823567ffffffffffffffff80821115611335575f80fd5b61134186838701611284565b93506020850135915080821115611356575f80fd5b5061136385828601611284565b9150509250929050565b634e487b7160e01b5f52602160045260245ffd5b60208101600683106113a157634e487b7160e01b5f52602160045260245ffd5b91905290565b600181811c908216806113bb57607f821691505b6020821081036113d957634e487b7160e01b5f52602260045260245ffd5b50919050565b60208082526017908201527f50726f706f73616c20646f6573206e6f74206578697374000000000000000000604082015260600190565b634e487b7160e01b5f52601160045260245ffd5b80820180821115610b1457610b14611416565b5f6020828403121561144d575f80fd5b5051919050565b5f6001820161146557611465611416565b5060010190565b601f8211156114b357805f5260205f20601f840160051c810160208510156114915750805b601f840160051c820191505b818110156114b0575f815560010161149d565b50505b505050565b815167ffffffffffffffff8111156114d2576114d2611270565b6114e6816114e084546113a7565b8461146c565b602080601f831160018114611519575f84156115025750858301515b5f19600386901b1c1916600185901b178555611570565b5f85815260208120601f198616915b8281101561154757888601518255948401946001909101908401611528565b508582101561156457878501515f19600388901b60f8161c191681555b505060018460011b0185555b505050505050565b848152608060208201525f611590608083018661114e565b6040830194909452506060015292915050565b8082028115828204841417610b1457610b14611416565b5f826115d457634e487b7160e01b5f52601260045260245ffd5b50049056fea26469706673582212206596028123287ffcb59e83ce8ad78cdcb320343ad9ddf250ef9e4545b9f5839764736f6c63430008180033",
  "linkReferences": {},
  "deployedLinkReferences": {}
}